{
  "contractName": "TipEscrow",
  "abi": [
    {
      "inputs": [],
      "name": "owner",
      "outputs": [
        {
          "internalType": "address",
          "name": "",
          "type": "address"
        }
      ],
      "stateMutability": "view",
      "type": "function",
      "constant": true
    },
    {
      "inputs": [
        {
          "internalType": "uint256",
          "name": "_emailHash",
          "type": "uint256"
        }
      ],
      "name": "hasTips",
      "outputs": [
        {
          "internalType": "uint256",
          "name": "result",
          "type": "uint256"
        }
      ],
      "stateMutability": "view",
      "type": "function",
      "constant": true
    },
    {
      "inputs": [
        {
          "internalType": "uint256",
          "name": "_emailHash",
          "type": "uint256"
        }
      ],
      "name": "deposit",
      "outputs": [],
      "stateMutability": "payable",
      "type": "function",
      "payable": true
    },
    {
      "inputs": [
        {
          "internalType": "address payable",
          "name": "_to",
          "type": "address"
        },
        {
          "internalType": "uint256",
          "name": "_emailHash",
          "type": "uint256"
        }
      ],
      "name": "claim",
      "outputs": [],
      "stateMutability": "payable",
      "type": "function",
      "payable": true
    }
  ],
  "bytecode": "0x6080604052336000806101000a81548173ffffffffffffffffffffffffffffffffffffffff021916908373ffffffffffffffffffffffffffffffffffffffff16021790555034801561005057600080fd5b506105dc806100606000396000f3fe60806040526004361061003f5760003560e01c8063279900e2146100445780638da5cb5b14610081578063aad3ec96146100ac578063b6b55f25146100c8575b600080fd5b34801561005057600080fd5b5061006b60048036038101906100669190610319565b6100e4565b6040516100789190610401565b60405180910390f35b34801561008d57600080fd5b50610096610101565b6040516100a391906103a6565b60405180910390f35b6100c660048036038101906100c191906102dd565b610125565b005b6100e260048036038101906100dd9190610319565b610286565b005b600060016000838152602001908152602001600020549050919050565b60008054906101000a900473ffffffffffffffffffffffffffffffffffffffff1681565b60008054906101000a900473ffffffffffffffffffffffffffffffffffffffff1673ffffffffffffffffffffffffffffffffffffffff163373ffffffffffffffffffffffffffffffffffffffff16146101b3576040517f08c379a00000000000000000000000000000000000000000000000000000000081526004016101aa906103e1565b60405180910390fd5b6001806000838152602001908152602001600020541015610209576040517f08c379a0000000000000000000000000000000000000000000000000000000008152600401610200906103c1565b60405180910390fd5b600060016000838152602001908152602001600020549050600060016000848152602001908152602001600020819055508273ffffffffffffffffffffffffffffffffffffffff166108fc829081150290604051600060405180830381858888f19350505050158015610280573d6000803e3d6000fd5b50505050565b346001600083815260200190815260200160002060008282546102a9919061042d565b9250508190555050565b6000813590506102c281610578565b92915050565b6000813590506102d78161058f565b92915050565b600080604083850312156102f057600080fd5b60006102fe858286016102b3565b925050602061030f858286016102c8565b9150509250929050565b60006020828403121561032b57600080fd5b6000610339848285016102c8565b91505092915050565b61034b81610483565b82525050565b600061035e60128361041c565b915061036982610500565b602082019050919050565b600061038160338361041c565b915061038c82610529565b604082019050919050565b6103a0816104c7565b82525050565b60006020820190506103bb6000830184610342565b92915050565b600060208201905081810360008301526103da81610351565b9050919050565b600060208201905081810360008301526103fa81610374565b9050919050565b60006020820190506104166000830184610397565b92915050565b600082825260208201905092915050565b6000610438826104c7565b9150610443836104c7565b9250827fffffffffffffffffffffffffffffffffffffffffffffffffffffffffffffffff03821115610478576104776104d1565b5b828201905092915050565b600061048e826104a7565b9050919050565b60006104a0826104a7565b9050919050565b600073ffffffffffffffffffffffffffffffffffffffff82169050919050565b6000819050919050565b7f4e487b7100000000000000000000000000000000000000000000000000000000600052601160045260246000fd5b7f4e6f20616d6f756e7420746f20636c61696d0000000000000000000000000000600082015250565b7f546869732066756e6374696f6e206973207265737472696374656420746f207460008201527f686520636f6e74726163742773206f776e657200000000000000000000000000602082015250565b61058181610495565b811461058c57600080fd5b50565b610598816104c7565b81146105a357600080fd5b5056fea26469706673582212206134c9662660a3036c30e64a52a1d29c16b2ca3e9740ac7016b6f2b11042837264736f6c63430008010033",
  "immutableReferences": {},
  "source": "// SPDX-License-Identifier: MIT\npragma solidity >=0.7.6 <0.9.0;\n\ncontract TipEscrow {\n  address public owner = msg.sender;\n\n  // email hash to amount (bnb) \n  mapping (uint256=>uint256) private emailHashToAmount;\n \n  modifier restricted() {\n    require(\n      msg.sender == owner,\n      \"This function is restricted to the contract's owner\"\n    );\n    _;\n  }\n\n  function hasTips(uint256 _emailHash) public view returns (uint256 result) {\n    result = emailHashToAmount[_emailHash];\n  }\n\n  function deposit(uint256 _emailHash) public payable {\n      emailHashToAmount[_emailHash] += msg.value;\n  }\n\n  function claim(address payable _to, uint256 _emailHash) public restricted payable {\n    if (emailHashToAmount[_emailHash] < 1) {\n        revert(\"No amount to claim\");\n    }\n\n    uint256 total = emailHashToAmount[_emailHash];\n    emailHashToAmount[_emailHash] = 0;\n    _to.transfer(total);\n  }\n}\n",
  "sourcePath": "/Users/hc834bq/dev/gitcoin/icebakers/contracts/TipEscrow.sol",
  "compiler": {
    "name": "solc",
    "version": "0.8.1+commit.df193b15.Emscripten.clang"
  },
  "schemaVersion": "3.3.3",
  "updatedAt": "2021-02-16T23:30:08.736Z",
  "networkType": "ethereum",
  "devdoc": {
    "kind": "dev",
    "methods": {},
    "version": 1
  },
  "userdoc": {
    "kind": "user",
    "methods": {},
    "version": 1
  }
}